{
  "_format": "hh-sol-artifact-1",
  "contractName": "ProofOfStake",
  "sourceName": "contracts/ProofOfStake.sol",
  "abi": [
    {
      "anonymous": false,
      "inputs": [
        {
          "indexed": true,
          "internalType": "address",
          "name": "user",
          "type": "address"
        },
        {
          "indexed": false,
          "internalType": "uint256",
          "name": "amount",
          "type": "uint256"
        }
      ],
      "name": "Staked",
      "type": "event"
    },
    {
      "anonymous": false,
      "inputs": [
        {
          "indexed": true,
          "internalType": "address",
          "name": "validator",
          "type": "address"
        }
      ],
      "name": "ValidatorSelected",
      "type": "event"
    },
    {
      "inputs": [],
      "name": "getTotalStake",
      "outputs": [
        {
          "internalType": "uint256",
          "name": "total",
          "type": "uint256"
        }
      ],
      "stateMutability": "view",
      "type": "function"
    },
    {
      "inputs": [],
      "name": "getValidators",
      "outputs": [
        {
          "internalType": "address[]",
          "name": "",
          "type": "address[]"
        }
      ],
      "stateMutability": "view",
      "type": "function"
    },
    {
      "inputs": [],
      "name": "selectValidator",
      "outputs": [
        {
          "internalType": "address",
          "name": "",
          "type": "address"
        }
      ],
      "stateMutability": "nonpayable",
      "type": "function"
    },
    {
      "inputs": [],
      "name": "stake",
      "outputs": [],
      "stateMutability": "payable",
      "type": "function"
    },
    {
      "inputs": [
        {
          "internalType": "address",
          "name": "",
          "type": "address"
        }
      ],
      "name": "stakes",
      "outputs": [
        {
          "internalType": "uint256",
          "name": "",
          "type": "uint256"
        }
      ],
      "stateMutability": "view",
      "type": "function"
    },
    {
      "inputs": [
        {
          "internalType": "uint256",
          "name": "",
          "type": "uint256"
        }
      ],
      "name": "validators",
      "outputs": [
        {
          "internalType": "address",
          "name": "",
          "type": "address"
        }
      ],
      "stateMutability": "view",
      "type": "function"
    }
  ],
  "bytecode": "0x6080604052348015600f57600080fd5b50610b308061001f6000396000f3fe6080604052600436106100555760003560e01c806316934fc41461005a57806335aa2e44146100975780633a4b66f1146100d45780637bc74225146100de5780638bd6485214610109578063b7ab4db514610134575b600080fd5b34801561006657600080fd5b50610081600480360381019061007c91906106fd565b61015f565b60405161008e9190610743565b60405180910390f35b3480156100a357600080fd5b506100be60048036038101906100b9919061078a565b610177565b6040516100cb91906107c6565b60405180910390f35b6100dc6101b6565b005b3480156100ea57600080fd5b506100f3610348565b6040516101009190610743565b60405180910390f35b34801561011557600080fd5b5061011e6103f8565b60405161012b91906107c6565b60405180910390f35b34801561014057600080fd5b5061014961060c565b604051610156919061089f565b60405180910390f35b60006020528060005260406000206000915090505481565b6001818154811061018757600080fd5b906000526020600020016000915054906101000a900473ffffffffffffffffffffffffffffffffffffffff1681565b600034116101f9576040517f08c379a00000000000000000000000000000000000000000000000000000000081526004016101f09061091e565b60405180910390fd5b60008060003373ffffffffffffffffffffffffffffffffffffffff1673ffffffffffffffffffffffffffffffffffffffff16815260200190815260200160002054036102a3576001339080600181540180825580915050600190039060005260206000200160009091909190916101000a81548173ffffffffffffffffffffffffffffffffffffffff021916908373ffffffffffffffffffffffffffffffffffffffff1602179055505b346000803373ffffffffffffffffffffffffffffffffffffffff1673ffffffffffffffffffffffffffffffffffffffff16815260200190815260200160002060008282546102f1919061096d565b925050819055503373ffffffffffffffffffffffffffffffffffffffff167f9e71bc8eea02a63969f509818f2dafb9254532904319f9dbda79b67bd34a5f3d3460405161033e9190610743565b60405180910390a2565b600080600090505b6001805490508110156103f45760008060018381548110610374576103736109a1565b5b9060005260206000200160009054906101000a900473ffffffffffffffffffffffffffffffffffffffff1673ffffffffffffffffffffffffffffffffffffffff1673ffffffffffffffffffffffffffffffffffffffff16815260200190815260200160002054826103e5919061096d565b91508080600101915050610350565b5090565b600080610403610348565b905060008111610448576040517f08c379a000000000000000000000000000000000000000000000000000000000815260040161043f90610a1c565b60405180910390fd5b60008142444360405160200161046093929190610a5d565b6040516020818303038152906040528051906020012060001c6104839190610ac9565b90506000805b60018054905081101561060057600080600183815481106104ad576104ac6109a1565b5b9060005260206000200160009054906101000a900473ffffffffffffffffffffffffffffffffffffffff1673ffffffffffffffffffffffffffffffffffffffff1673ffffffffffffffffffffffffffffffffffffffff168152602001908152602001600020548261051e919061096d565b9150818310156105f3576001818154811061053c5761053b6109a1565b5b9060005260206000200160009054906101000a900473ffffffffffffffffffffffffffffffffffffffff1673ffffffffffffffffffffffffffffffffffffffff167fdbbc3fb464c238346e7c6b1dd5fc04bd2120161cd125361223ad76f36b70ca7660405160405180910390a2600181815481106105bd576105bc6109a1565b5b9060005260206000200160009054906101000a900473ffffffffffffffffffffffffffffffffffffffff16945050505050610609565b8080600101915050610489565b50600093505050505b90565b6060600180548060200260200160405190810160405280929190818152602001828054801561069057602002820191906000526020600020905b8160009054906101000a900473ffffffffffffffffffffffffffffffffffffffff1673ffffffffffffffffffffffffffffffffffffffff1681526020019060010190808311610646575b5050505050905090565b600080fd5b600073ffffffffffffffffffffffffffffffffffffffff82169050919050565b60006106ca8261069f565b9050919050565b6106da816106bf565b81146106e557600080fd5b50565b6000813590506106f7816106d1565b92915050565b6000602082840312156107135761071261069a565b5b6000610721848285016106e8565b91505092915050565b6000819050919050565b61073d8161072a565b82525050565b60006020820190506107586000830184610734565b92915050565b6107678161072a565b811461077257600080fd5b50565b6000813590506107848161075e565b92915050565b6000602082840312156107a05761079f61069a565b5b60006107ae84828501610775565b91505092915050565b6107c0816106bf565b82525050565b60006020820190506107db60008301846107b7565b92915050565b600081519050919050565b600082825260208201905092915050565b6000819050602082019050919050565b610816816106bf565b82525050565b6000610828838361080d565b60208301905092915050565b6000602082019050919050565b600061084c826107e1565b61085681856107ec565b9350610861836107fd565b8060005b83811015610892578151610879888261081c565b975061088483610834565b925050600181019050610865565b5085935050505092915050565b600060208201905081810360008301526108b98184610841565b905092915050565b600082825260208201905092915050565b7f4d757374207374616b65206d6f7265207468616e203000000000000000000000600082015250565b60006109086016836108c1565b9150610913826108d2565b602082019050919050565b60006020820190508181036000830152610937816108fb565b9050919050565b7f4e487b7100000000000000000000000000000000000000000000000000000000600052601160045260246000fd5b60006109788261072a565b91506109838361072a565b925082820190508082111561099b5761099a61093e565b5b92915050565b7f4e487b7100000000000000000000000000000000000000000000000000000000600052603260045260246000fd5b7f4e6f207374616b65732079657400000000000000000000000000000000000000600082015250565b6000610a06600d836108c1565b9150610a11826109d0565b602082019050919050565b60006020820190508181036000830152610a35816109f9565b9050919050565b6000819050919050565b610a57610a528261072a565b610a3c565b82525050565b6000610a698286610a46565b602082019150610a798285610a46565b602082019150610a898284610a46565b602082019150819050949350505050565b7f4e487b7100000000000000000000000000000000000000000000000000000000600052601260045260246000fd5b6000610ad48261072a565b9150610adf8361072a565b925082610aef57610aee610a9a565b5b82820690509291505056fea2646970667358221220b79205d29d0b893112be6fe8aa7835f1e3269aa1bce05d5ad84f61615f6e87cd64736f6c634300081c0033",
  "linkReferences": {},
  "deployedLinkReferences": {}
}