{
  "_format": "hh-sol-artifact-1",
  "contractName": "ThucTokenExchange",
  "sourceName": "contracts/ThucTokenExchange.sol",
  "abi": [
    {
      "inputs": [
        {
          "internalType": "address",
          "name": "_tokenAddress",
          "type": "address"
        }
      ],
      "stateMutability": "nonpayable",
      "type": "constructor"
    },
    {
      "inputs": [],
      "name": "buyTokens",
      "outputs": [],
      "stateMutability": "payable",
      "type": "function"
    },
    {
      "inputs": [],
      "name": "owner",
      "outputs": [
        {
          "internalType": "address",
          "name": "",
          "type": "address"
        }
      ],
      "stateMutability": "view",
      "type": "function"
    },
    {
      "inputs": [],
      "name": "rate",
      "outputs": [
        {
          "internalType": "uint256",
          "name": "",
          "type": "uint256"
        }
      ],
      "stateMutability": "view",
      "type": "function"
    },
    {
      "inputs": [
        {
          "internalType": "uint256",
          "name": "tokenAmount",
          "type": "uint256"
        }
      ],
      "name": "sellTokens",
      "outputs": [],
      "stateMutability": "nonpayable",
      "type": "function"
    },
    {
      "inputs": [],
      "name": "token",
      "outputs": [
        {
          "internalType": "contract ThucToken",
          "name": "",
          "type": "address"
        }
      ],
      "stateMutability": "view",
      "type": "function"
    },
    {
      "stateMutability": "payable",
      "type": "receive"
    }
  ],
  "bytecode": "0x6080604052606460025534801561001557600080fd5b50604051610a2a380380610a2a83398181016040528101906100379190610121565b806000806101000a81548173ffffffffffffffffffffffffffffffffffffffff021916908373ffffffffffffffffffffffffffffffffffffffff16021790555033600160006101000a81548173ffffffffffffffffffffffffffffffffffffffff021916908373ffffffffffffffffffffffffffffffffffffffff1602179055505061014e565b600080fd5b600073ffffffffffffffffffffffffffffffffffffffff82169050919050565b60006100ee826100c3565b9050919050565b6100fe816100e3565b811461010957600080fd5b50565b60008151905061011b816100f5565b92915050565b600060208284031215610137576101366100be565b5b60006101458482850161010c565b91505092915050565b6108cd8061015d6000396000f3fe60806040526004361061004e5760003560e01c80632c4e722e1461005a5780636c11bcd3146100855780638da5cb5b146100ae578063d0febe4c146100d9578063fc0c546a146100e357610055565b3661005557005b600080fd5b34801561006657600080fd5b5061006f61010e565b60405161007c91906104b0565b60405180910390f35b34801561009157600080fd5b506100ac60048036038101906100a791906104fc565b610114565b005b3480156100ba57600080fd5b506100c3610277565b6040516100d0919061056a565b60405180910390f35b6100e161029d565b005b3480156100ef57600080fd5b506100f8610473565b60405161010591906105e4565b60405180910390f35b60025481565b600060025482610124919061065d565b905080471015610169576040517f08c379a0000000000000000000000000000000000000000000000000000000008152600401610160906106eb565b60405180910390fd5b60008054906101000a900473ffffffffffffffffffffffffffffffffffffffff1673ffffffffffffffffffffffffffffffffffffffff166323b872dd33600160009054906101000a900473ffffffffffffffffffffffffffffffffffffffff16856040518463ffffffff1660e01b81526004016101e89392919061070b565b6020604051808303816000875af1158015610207573d6000803e3d6000fd5b505050506040513d601f19601f8201168201806040525081019061022b919061077a565b503373ffffffffffffffffffffffffffffffffffffffff166108fc829081150290604051600060405180830381858888f19350505050158015610272573d6000803e3d6000fd5b505050565b600160009054906101000a900473ffffffffffffffffffffffffffffffffffffffff1681565b6000600254346102ad91906107a7565b90508060008054906101000a900473ffffffffffffffffffffffffffffffffffffffff1673ffffffffffffffffffffffffffffffffffffffff166370a08231600160009054906101000a900473ffffffffffffffffffffffffffffffffffffffff166040518263ffffffff1660e01b815260040161032b919061056a565b602060405180830381865afa158015610348573d6000803e3d6000fd5b505050506040513d601f19601f8201168201806040525081019061036c91906107fe565b10156103ad576040517f08c379a00000000000000000000000000000000000000000000000000000000081526004016103a490610877565b60405180910390fd5b60008054906101000a900473ffffffffffffffffffffffffffffffffffffffff1673ffffffffffffffffffffffffffffffffffffffff166323b872dd600160009054906101000a900473ffffffffffffffffffffffffffffffffffffffff1633846040518463ffffffff1660e01b815260040161042c9392919061070b565b6020604051808303816000875af115801561044b573d6000803e3d6000fd5b505050506040513d601f19601f8201168201806040525081019061046f919061077a565b5050565b60008054906101000a900473ffffffffffffffffffffffffffffffffffffffff1681565b6000819050919050565b6104aa81610497565b82525050565b60006020820190506104c560008301846104a1565b92915050565b600080fd5b6104d981610497565b81146104e457600080fd5b50565b6000813590506104f6816104d0565b92915050565b600060208284031215610512576105116104cb565b5b6000610520848285016104e7565b91505092915050565b600073ffffffffffffffffffffffffffffffffffffffff82169050919050565b600061055482610529565b9050919050565b61056481610549565b82525050565b600060208201905061057f600083018461055b565b92915050565b6000819050919050565b60006105aa6105a56105a084610529565b610585565b610529565b9050919050565b60006105bc8261058f565b9050919050565b60006105ce826105b1565b9050919050565b6105de816105c3565b82525050565b60006020820190506105f960008301846105d5565b92915050565b7f4e487b7100000000000000000000000000000000000000000000000000000000600052601260045260246000fd5b7f4e487b7100000000000000000000000000000000000000000000000000000000600052601160045260246000fd5b600061066882610497565b915061067383610497565b925082610683576106826105ff565b5b828204905092915050565b600082825260208201905092915050565b7f45786368616e67652068617320696e73756666696369656e7420455448000000600082015250565b60006106d5601d8361068e565b91506106e08261069f565b602082019050919050565b60006020820190508181036000830152610704816106c8565b9050919050565b6000606082019050610720600083018661055b565b61072d602083018561055b565b61073a60408301846104a1565b949350505050565b60008115159050919050565b61075781610742565b811461076257600080fd5b50565b6000815190506107748161074e565b92915050565b6000602082840312156107905761078f6104cb565b5b600061079e84828501610765565b91505092915050565b60006107b282610497565b91506107bd83610497565b92508282026107cb81610497565b915082820484148315176107e2576107e161062e565b5b5092915050565b6000815190506107f8816104d0565b92915050565b600060208284031215610814576108136104cb565b5b6000610822848285016107e9565b91505092915050565b7f496e73756666696369656e7420746f6b656e7320696e20726573657276650000600082015250565b6000610861601e8361068e565b915061086c8261082b565b602082019050919050565b6000602082019050818103600083015261089081610854565b905091905056fea2646970667358221220c1dc7fed9444e3b41c06ffe89e3491d6d74f0d4aef77bca2dbeee8e539c1c70e64736f6c634300081c0033",
  "linkReferences": {},
  "deployedLinkReferences": {}
}